:020000040800F2
:1000000000200020190800083B0200083D020008FB
:1000100000000000000000000000000000000000E0
:100020000000000000000000000000003F02000887
:100030000000000000000000410200084302000828
:1000400069080008690800086908000869080008CC
:1000500069080008690800086908000869080008BC
:10006000000000006908000869080008000000009E
:100070006908000869080008690800080000000015
:100080006908000869080008000000006908000805
:1000900000000000690800086908000869080008F5
:1000A00000000000690800086908000869080008E5
:1000B000690800080000000069080008000000004E
:1000C000002934D00123002210B488422CD301240B
:1000D0002407A14204D2814202D209011B01F8E7A0
:1000E000E400A14204D2814202D249005B00F8E759
:1000F000884201D3401A1A434C08A04202D3001B85
:100100005C0822438C08A04202D3001B9C082243B7
:10011000CC08A04202D3001BDC082243002803D0F5
:100120001B0901D00909E3E7100010BC704701B5B5
:10013000002000F00BF802BD0029F8D003B5FFF74E
:10014000C1FF0EBC4243891A1847C0467047C046DB
:1001500010B5064C2378002B07D1054B002B02D09D
:10016000044800E000BF0123237010BDCC00002034
:10017000000000006C080008044B10B5002B03D0F1
:100180000349044800E000BF10BDC0460000000065
:10019000D00000206C08000870B500260C4C0D4DF6
:1001A000641BA410A64209D1002600F05FFB0A4C94
:1001B0000A4D641BA410A64205D170BDB300EB58D4
:1001C00098470136EEE7B300EB5898470136F2E75F
:1001D000A4080008A4080008A8080008A40800084B
:1001E00000B587B0094A516B022319435163526B22
:1001F0001A400092009A01A9012201924A608A6085
:10020000CB60034800F0DEF807B000BD00100240EC
:100210000004005010B500F045F8FFF7E1FF00F0D2
:1002200083FAFA20400000F05BF80121014800F059
:1002300089F9F6E70004005070477047FEE7704701
:10024000704710B500F03AF810BD000010B504007A
:10025000114B1968002901D1012010BDFA2080003E
:10026000FFF72EFF01000D4B1868FFF729FF00F084
:10027000A5F800280DD1032C01D90120EDE70130AC
:1002800000222100404200F089F8054B1C6000204C
:10029000E3E70120E1E7C046C0000020C8000020DD
:1002A000C400002010B50320FFF7D0FF041E02D0C9
:1002B0000124200010BDFFF7BFFFFAE7034A1368CF
:1002C000034909685B1813607047C046E8000020C6
:1002D000C0000020014B18687047C046E8000020AD
:1002E00070B50400FFF7F6FF0500631C02D0044B55
:1002F0001B68E418FFF7EEFF401BA042FAD370BD65
:10030000C000002070B5002811DB8308134DC033F6
:100310009B005C5903221040C000FC32160086404E
:10032000B44389010A40824022435A5170BD0F23D1
:100330000340083B9B0806339B00094A94466344EC
:100340005C6803221040C000FC3215008540AC43BD
:1003500089010A40824022435A60E7E700E100E059
:1003600000ED00E0013880235B0498420FD2094A77
:1003700050600948036A1B021B0AC02109060B438F
:10038000036200239360073313600020704701204D
:10039000FCE7C04610E000E000ED00E010B5FFF71C
:1003A000B1FF10BD002805DB1F220240012393404E
:1003B000014A13607047C04600E100E010B5FFF746
:1003C000D1FF10BDF0B5D6464F464646C0B5002316
:1003D00069E084683C40A446CC68B44065462C4340
:1003E0008460446894434A68120994460122654631
:1003F0002A409A4022434260C4683C408A68B24026
:100400002243C2604A68D2004CD59A0814001834BE
:10041000A4004A4EA75903241C40E4000F26A6401E
:10042000B743A026F605B04200D180E0444EB0426A
:100430007BD00226A64034003C43404E1832920046
:1004400094518022B7584A46D2433E004C46A643B8
:100450004C68E40302D53E004C462643374C8027C7
:10046000E6518426A7593E0016404C68A40302D5E5
:100470003E004C462643314C8427E65127683E0017
:1004800016404C68E40202D53E004C4626432B4CF5
:100490002660666832404C68A40201D54A46324361
:1004A000264C626001330C682200DA4041D0012200
:1004B0009A4025001540A9461442F3D04C68022CFE
:1004C00001D0122C10D1DC080834A40027580726CC
:1004D0001E40B6000F25B540AF43BC460F69B7407C
:1004E0003E0065462E4326500468A4465E00032461
:1004F000A2462700B740B846FF4365464446A54399
:10050000AC464C68554625402C00B44065462C430B
:1005100004604C68651E012D00D85AE7112C00D1EB
:1005200057E7122C00D067E753E7012682E7002641
:1005300080E7E0BCBA46B146A846F0BD00180240CC
:10054000000400504369194201D081627047816103
:10055000FCE70000014B18687047C046C800002047
:1005600010B5FFF7F7FF064B9A68120B07231340ED
:10057000044A9B009A581F231340D84010BDC04620
:100580000010024084080008036A5B060BD502686D
:10059000536909490B40416A0B435361426A802306
:1005A0005B019A4200D070470268536903490B40CF
:1005B000816A0B435361F6E7FFEFFFFFFF9FFFFFE9
:1005C00070B504000268136933490B40C1680B43DE
:1005D0001361826803691A4343691A430168CB684F
:1005E0002E4803401343CB60E169226853692C48CD
:1005F00003400B435361226853692A490B40A169A8
:100600000B435361E26980231B019A4220D0FFF71C
:10061000A7FF830018188300C01861688900FFF7DE
:100620004FFD06006421FFF74BFD050164213000FA
:10063000FFF782FD080132306421FFF741FDF0230E
:100640000340ED180F2303402268ED18956070BD3C
:10065000FFF786FF830018188300C01861684900FF
:10066000FFF72EFD06006421FFF72AFD0501642136
:100670003000FFF761FDC80032306421FFF720FD34
:100680004300F82252001340ED180723034022686C
:10069000ED189560DBE7C046FFDFFFFFF3E9FFFFE2
:1006A000FFF7FFFFFFFCFFFF7047000010B5041EBF
:1006B00034D04523C35C002B26D045232422E254AA
:1006C0002268D36816490B40D3602000FFF778FFFB
:1006D000236A002B1ED12268136912490B40136153
:1006E0002268536908218B4353612268D1688023B3
:1006F0009B010B43D3600023A36420334522A35402
:100700000132A354002010BD44330022C254FFF72D
:10071000CBFFD2E72000FFF737FFDCE70120F2E74D
:10072000FFDFFFFFFFF7FFFF70B588B000230093E6
:10073000234C226C8021C9010A432264226C0A40A6
:100740000092009A1F48204A0260E1225202426051
:100750008360C360036183610C334361FFF7A6FFCD
:10076000636B01252B436363636B2B400193019BF8
:10077000636B2B436363636B2B400293029B03AC5D
:1007800004230393023B04930595013306930795D5
:10079000A026F60521003000FFF714FE082303937E
:1007A000079521003000FFF70DFE012200211B20DC
:1007B000FFF7F4FD1B20FFF7F5FD08B070BDC04644
:1007C00000100240EC000020003801400D494B6849
:1007D0001B0C1B040C4A1268134380229201134322
:1007E0004B60002306E0094A99008858084A88505F
:1007F0000133DBB22F2BF6D9064B802292059A608B
:100800007047C04600100240040FFF1F00000008A0
:100810000000002000ED00E00D4885460D480E491F
:100820000E4A002302E0D458C4500433C4188C424A
:10083000F9D30B4A0B4C002301E013600432A242AF
:10084000FBD3FFF7C3FFFFF7A7FCFFF7E3FCFEE7CF
:1008500000200020C0000020CC000020AC080008D0
:10086000CC00002038010020FEE70000F8B5C046AB
:10087000F8BC08BC9E467047F8B5C046F8BC08BC3A
:040880009E467047D9
:100884000000000000000000000000000000000064
:10089400010000000200000003000000040000004A
:0408A40079010008CE
:0408A80051010008F2
:0C08AC00010000000400000000127A00AF
:0400000508000819CE
:00000001FF
